:10C0000031405040374000500A433540401F1583AF
:10C01000FE23B24010005800B240805A200132C2C4
:10C02000A2430E0BB24004BE6401B2406600000B96
:10C03000B24024006001B24000800C0B8243080B28
:10C0400082430A0B874A00002753874A0000275380
:10C050000D43B012A6C23F4032000D43B0126CC176
:10C06000B01232C2B012ACC0084308930924B740E2
:10C07000333300002753874A00002753B012A6C26B
:10C080001F830124EA3F1F43B74033330000275387
:10C09000874A000027530D43B012A6C21F83012414
:10C0A000F33FB743000082435800633D3B400070BC
:10C0B0002C4BB24000800C0BB24004BE6401B24075
:10C0C00024006001B2430E0B2B53A24B080B2B53E1
:10C0D000A24B0A0B2B532B532B53284B08932C2486
:10C0E000B2400032020BB2406000100BB240600060
:10C0F000120BB2406600000BB240140060012543F1
:10C10000B0124EC3064306930B24B2402600000B28
:10C110002543B01260C32A53B2406600000B093CAD
:10C120008248000B2543B01260C32A53B240660018
:10C13000000B1543B0124EC31C830124C53FA2421D
:10C1400060012543B0124EC3B24024006001154384
:10C15000B0124EC3A2430E0BB2404000100BB240CF
:10C160004000120B1543B0124EC330413B400070EB
:10C170002C4BB24000800C0BB24004BE6401B240B4
:10C1800024006001A2430E0B2B53A24B080B2B5330
:10C19000A24B0A0B2B532B532B53294B09933F24B0
:10C1A000824D020BB2404000100BB2404000120B17
:10C1B000B2406600000B2543B0124EC3B240A4004B
:10C1C000000B35400A00B0124EC32E420943B24064
:10C1D00000B00C0B35400500B0124EC38243040B77
:10C1E0001952040BB24000800C0B35400A00B0120B
:10C1F00060C31E830124EB3F0910091039C000C041
:10C200002B832B83284B2B532B53099803308B43C1
:10C210000000053C2B8308898B4800002B531C83AE
:10C220000124B23FB2406600000BB240240060011E
:10C2300030413B4000702C4B2B532B532B53284B3E
:10C240002B53294B2B532E4B0E93292408893880CE
:10C25000C00D3642089301340843081038C00080EE
:10C260001683FB2336400500091039C00080168371
:10C27000FB23395023001643069302240958013C3E
:10C280000988099301340943096919C339500068C1
:10C290002B838B4900002B532E498B4E00001C83AF
:10C2A0000124CA3F30413B4000702C4BB24000801B
:10C2B0000C0BB24004BE6401B24024006001A243F2
:10C2C0000E0B2B53A24B080B2B53A24B0A0B2B53D9
:10C2D0002B532B53824D020BB2404000100BB24047
:10C2E0004000120BB2406600000B2543B0124EC353
:10C2F000B240A400000B35400A00B0124EC32E42DB
:10C300000943B24000B00C0B35400500B0124EC3DB
:10C310008243040B1952040BB24000800C0B3540D1
:10C320000A00B01260C31E830124EB3F09100910FC
:10C3300039C000C08749000027531C830124C13F36
:10C34000B2406600000BB24024006001304134402E
:10C35000FC0C06441683FE2306441583FB23304160
:10C360003440220006441683FE2306441583FB2333
:0AC37000304182435800034330437C
:10FFE00072C372C372C372C372C372C372C372C369
:10FFF00072C372C372C372C372C372C372C300C0CE
:040000030000C00039
:00000001FF
