:10C0000031405040374000500A433540401F1583AF
:10C01000FE23B24010005800B240805A200132C2C4
:10C02000A2430E0BB24004BE6401B2406600000B96
:10C03000B24024006001B24000800C0B8243080B28
:10C0400082430A0BB0124EC082435800993C1B43F6
:10C05000B24000800C0BB24004AE6401B240240038
:10C0600060018243080B82430A0B35400500B01281
:10C070005CC1B2404000020BB2404000100BB24025
:10C080004000120BB2402600000BA2426001B240F9
:10C0900020000E0B35402800B0125CC13A50280039
:10C0A000A2430E0BB24004BE6401B2406600000B16
:10C0B000B2402400600135401400B0125CC11B8303
:10C0C0000124C63F30411B43B24000800C0BB240FC
:10C0D00024006001B24028000E0BB2406600000B45
:10C0E000B2406000020BB2406000100BB240600032
:10C0F000120B8243080B82430A0B35400500B01235
:10C100005CC1B2401000600135402800B0125CC133
:10C110003A502800B2402000600135400500B012BE
:10C120005CC1B2404000020BB2404000100BB24074
:10C130004000120BB2402600000BA24260012543D2
:10C14000B0125CC1B24024006001A2430E0B154343
:10C15000B0125CC11B830124B73F30413440FC0C5A
:10C1600006441683FE2306441583FB2330413440E6
:10C17000220006441683FE2306441583FB23304128
:08C180008243580003433043E1
:10FFE00080C180C180C180C180C180C180C180C109
:10FFF00080C180C180C180C180C180C180C100C07A
:040000030000C00039
:00000001FF
