:10C0000031405040374000500A433540401F1583AF
:10C01000FE23B24010005800B240805A200132C2C4
:10C02000A2430E0BB24004BE6401B2406600000B96
:10C03000B24024006001B24000800C0B8243080B28
:10C0400082430A0B874A00002753874A0000275380
:10C050000D43B01266C23F4032000D43B01232C1F0
:10C06000B012F8C1B0128CC0B74033330000275370
:10C07000874A000027530D43B01266C21F83012474
:10C08000EC3FB743000082435800533D3B400070F3
:10C090002C4BB24000800C0BB24004BE6401B24095
:10C0A00024006001B2430E0B2B53A24B080B2B5301
:10C0B000A24B0A0B2B532B532B53284B08931F24B3
:10C0C000B240004A020BB2406000100BB240600068
:10C0D000120BB2406600000BB24014006001254311
:10C0E000B0120EC38248000B35400700B01220C3C7
:10C0F0001A53B2406600000B1543B0120EC31C83E6
:10C100000124D23FA24260012543B0120EC3B240C7
:10C11000240060011543B0120EC3A2430E0BB240BF
:10C120004000100BB2404000120B1543B0120EC37A
:10C1300030413B4000702C4BB24000800C0BB240B1
:10C1400004BE6401B24024006001A2430E0B2B53D5
:10C15000A24B080B2B53A24B0A0B2B532B532B53E5
:10C16000294B09933F24824D020BB2404000100B33
:10C17000B2404000120BB2406600000B2543B012E3
:10C180000EC3B240A400000B35400A00B0120EC32B
:10C190002E420943B24000B00C0B35400500B012EE
:10C1A0000EC38243040B1952040BB24000800C0BE7
:10C1B00035400A00B01220C31E830124EB3F091052
:10C1C000091039C000C02B832B83284B2B532B53D2
:10C1D000099803308B430000053C2B8308898B486A
:10C1E00000002B531C830124B23FB2406600000BB9
:10C1F000B2402400600130413B4000702C4B2B5377
:10C200002B532B53284B2B53294B2B532E4B0E9335
:10C2100026240889388090110893013408430810B7
:10C22000081008100810081008100810081038C06E
:10C23000C0FF09100910091039C000FF395015005E
:10C240000958099301340943096919C33950006831
:10C250002B838B4900002B532E498B4E00001C83EF
:10C260000124CD3F30413B4000702C4BB240008058
:10C270000C0BB24004BE6401B24024006001A24332
:10C280000E0B2B53A24B080B2B53A24B0A0B2B5319
:10C290002B532B53824D020BB2404000100BB24087
:10C2A0004000120BB2406600000B2543B0120EC3D3
:10C2B000B240A400000B35400A00B0120EC32E425B
:10C2C0000943B24000B00C0B35400500B0120EC35C
:10C2D0008243040B1952040BB24000800C0B354012
:10C2E0000A00B01220C31E830124EB3F091009107D
:10C2F00039C000C08749000027531C830124C13F77
:10C30000B2406600000BB24024006001304134406E
:10C31000FC0C06441683FE2306441583FB233041A0
:10C320003440220006441683FE2306441583FB2373
:0AC3300030418243580003433043BC
:10FFE00032C332C332C332C332C332C332C332C369
:10FFF00032C332C332C332C332C332C332C300C08E
:040000030000C00039
:00000001FF
