:10C0000031405040374000500A433540401F1583AF
:10C01000FE23B24010005800B240805A200132C2C4
:10C02000A2430E0BB24004BE6401B2406600000B96
:10C03000B24024006001B24000800C0B8243080B28
:10C0400082430A0B874A00002753874A0000275380
:10C050000D43B0126CC23F4014000D43B01254C1E6
:10C06000B01200C2B012A4C0184308930924B7400C
:10C07000333300002753874A00002753B0126CC2A5
:10C080001F830124EA3FB740333300002753874A18
:10C09000000027530D43B0126CC2B7430000824327
:10C0A00058003C3D3B4000702C4BB24000800C0BD4
:10C0B000B24004BE6401B24024006001B2430E0BE2
:10C0C0002B53A24B080B2B53A24B0A0B2B532B5376
:10C0D0002B53284B08932424B2400032020BB24069
:10C0E0006000100BB2406000120BB2406600000B03
:10C0F000B240140060012543B012F8C2B2402600DD
:10C10000000B2543B0120AC32A5318830124F93FB8
:10C11000BB430000B2406600000B1543B012F8C2EA
:10C120001C830124CD3FA24260012543B012F8C216
:10C13000B240240060011543B012F8C2A2430E0BB6
:10C14000B2404000100BB2404000120B1543B01239
:10C15000F8C230413B4000702C4BB24000800C0BC9
:10C16000B24004BE6401B24024006001A2430E0B41
:10C170002B53A24B080B2B53A24B0A0B2B53284BD0
:10C180003880F4012B532B53294B09932F24824DD4
:10C19000020BB2404000100BB2404000120BB24004
:10C1A0006600000B2543B012F8C2B240A400000B99
:10C1B00035400A00B012F8C2B24000B00C0B354056
:10C1C0000500B012F8C28243040B1942040BB240BE
:10C1D00000800C0B099803308B430000073C2B8335
:10C1E0003850F40108898B4800002B531C8301242C
:10C1F000BF3FB2406600000BB240240060013041F6
:10C200003B4000702C4B2B532B532B53284B2B5361
:10C21000294B2B532E4B0E93252408893890C00DA3
:10C2200002343840C00D3880C00D0958081008107D
:10C23000081008100810081038C000FF086818C35C
:10C240003850006809100910091009100910091068
:10C2500039C000FF096919C3395000682E492E887A
:10C260008B4E00001C830124CE3F30413B400070C8
:10C270002C4BB24000800C0BB24004BE6401B240B3
:10C2800024006001A2430E0B2B53A24B080B2B532F
:10C29000A24B0A0B2B532B532B53824D020BB24054
:10C2A0004000100BB2404000120BB2406600000B81
:10C2B0002543B012F8C2B240A400000B35400A007A
:10C2C000B012F8C2B24000B00C0B35400500B012FD
:10C2D000F8C28243040B9742040B00002753B2407C
:10C2E00000800C0B1C830124CF3FB2406600000B82
:10C2F000B2402400600130413440FC0C06441683F7
:10C30000FE2306441583FB233041344022000644BB
:10C310001683FE2306441583FB23304182435800D5
:04C320000343304360
:10FFE0001CC31CC31CC31CC31CC31CC31CC31CC319
:10FFF0001CC31CC31CC31CC31CC31CC31CC300C028
:040000030000C00039
:00000001FF
