:10C000003140504037400060B24010005800B2400C
:10C01000805A200132C2A2430E0B8243080B824396
:10C020000A0B8243020B8243100B8243120BB24075
:10C0300004BF6401B240A400000BB2406400600180
:10C0400082430C0B3B4000432C4B2B532D4B2B536B
:10C050002E4B82430C0B094D39C0FEFF09930A2475
:10C060002B53294B096909690969096909100910E4
:10C07000091009100A4D0A103AC0FEFF0A930A245B
:10C080002B532A4B0A6A0A6A0A6A0A6A0A6A0A6A05
:10C090000A6A0A6A0A59824AD001094D0910091030
:10C0A00039C0FEFF09930A242B53294B09690969FA
:10C0B0000969096909100910091009100A4D0A10C7
:10C0C0000A100A103AC0FEFF0A930A242B532A4B87
:10C0D0000A6A0A6A0A6A0A6A0A6A0A6A0A6A0A6AC0
:10C0E0000A59824AD201094D091009100910091094
:10C0F00039C0FEFF09930A242B53294B09690969AA
:10C100000969096909100910091009100A4D0A1076
:10C110000A100A100A100A103AC0FEFF0A930A24F5
:10C120002B532A4B0A6A0A6A0A6A0A6A0A6A0A6A64
:10C130000A6A0A6A0A59824AD401094D091009108B
:10C14000091009100910091039C0FEFF09930A24CB
:10C150002B53294B096909690969096909100910F3
:10C16000091009100A4D0A100A100A100A100A10C4
:10C170000A100A103AC0FEFF0A930A242B532A4BD6
:10C180000A6A0A6A0A6A0A6A0A6A0A6A0A6A0A6A0F
:10C190000A59824AD601094D0910091009100910DF
:10C1A000091009100910091039C0FEFF09930A246B
:10C1B0002B53294B09690969096909690910091093
:10C1C000091009100A4D0A100A100A100A100A1064
:10C1D0000A100A100A100A103AC0FEFF0A930A2435
:10C1E0002B532A4B0A6A0A6A0A6A0A6A0A6A0A6AA4
:10C1F0000A6A0A6A0A59824AD801054E2582B01293
:10C200004AC2384000422F482853A248080B2853FE
:10C21000A2480A0B82430C0BB24000300C0B354095
:10C220000500B0124AC28243040B9742040B00007F
:10C2300027531F830124E83F1C8301240A3FB7438F
:10C24000000082435800034330433440FC0C064452
:0CC250001683FE2306441583FB233041B7
:10FFE00042C242C242C242C242C242C242C242C2F1
:10FFF00042C242C242C242C242C242C242C200C025
:040000030000C00039
:00000001FF
