:10C0000031405040374000500A4335408813158373
:10C01000FE23B24010005800B240805A200132C2C4
:10C02000A2430E0BB24004BE6401B2406600000B96
:10C03000B24024006001B24000800C0B8243080B28
:10C0400082430A0B874A00002753874A0000275380
:10C05000B01232C3B01272C0B01232C3B012F2C00A
:10C06000B01232C3B0128CC1B01232C3B743000059
:10C07000C73D1B43B24000800C0BB24004AE6401CC
:10C08000B240240060018243080B82430A0B354012
:10C090000500B012DCC3B2404000020BB2404000C9
:10C0A000100BB2404000120BB2402600000BA2421F
:10C0B0006001B2430E0B2543B012DCC32A53A243E6
:10C0C0000E0BB24004BE6401B2406600000BB240E9
:10C0D0002400600135401400B012DCC31B8301242E
:10C0E000C93FB740111100002753874A000027536A
:10C0F00030411B43B24000800C0BB2402000600175
:10C10000A2430E0BB2406600000BB2406000020B6F
:10C11000B2406000100BB2406000120B8243080B6B
:10C1200082430A0B35400500B012DCC3B240100058
:10C1300060012543B012DCC32A53B24020006001E5
:10C1400035400500B012DCC3B2404000020BB240E3
:10C150004000100BB2404000120BB2402600000B12
:10C16000A24260012543B012DCC3B240240060014A
:10C170001543B012DCC31B830124BC3FB74022220D
:10C1800000002753874A0000275330413B4000708E
:10C190002C4BB24000800C0BB24004BE6401B24094
:10C1A00024006001B2430E0BB2406600000BB240A7
:10C1B000140060012543B012DCC32B53A24B080BC3
:10C1C0002B53A24B0A0B2B53284BB24000800C0B75
:10C1D000B2430E0B0893542482430C0BA2430E0B64
:10C1E000B2404000020BB2404000100BB240400091
:10C1F000120BB2402600000B35400300B012DCC326
:10C200003A500300B2406600000BB24000800C0BB5
:10C21000B2430E0BB2404000020BB2406000100B64
:10C22000B2406000120BB2402600000B35402C01DA
:10C23000B012DCC33A502C018243020B35402C0172
:10C24000B012DCC33A502C01B2400050020B354012
:10C250002C01B012DCC33A502C01B24000B0020BEA
:10C2600035402C01B012DCC33A502C01B2406000C2
:10C27000020B35402C01B012DCC33A502C012F3C8C
:10C28000B2404000020BB2406000100BB2406000B0
:10C29000120BB2402600000B35406400B012DCC324
:10C2A0003A5064008243020B35403200B012DCC3C6
:10C2B0003A503200B2400050020B1543B012DCC3BA
:10C2C0001A53B24000B0020B1543B012DCC31A532C
:10C2D000B2406000020B1543B012DCC31A53B240E7
:10C2E0006600000B1543B012DCC31C830124653FBC
:10C2F000A24260012543B012DCC3B24024006001B9
:10C300001543B012DCC3B24000800C0BA2430E0BED
:10C31000B2404000100BB2404000120B1543B01267
:10C32000DCC3B740333300002753874A000027534C
:10C3300030413B4000702C4BB24000800C0BB240AF
:10C3400004BE6401B24024006001A2430E0B2B53D3
:10C35000A24B080B2B53A24B0A0B2B53284BB2407A
:10C3600000800C0B0893022482430C0BB240400067
:10C37000020BB2404000100BB2404000120BB24022
:10C380006600000B2543B012DCC3B240A400000BD2
:10C3900035400A00B012DCC3B24000B00C0B089369
:10C3A0000324B24000300C0B35400500B012DCC352
:10C3B0008243040B9742040B00002753B2400080D5
:10C3C0000C0B1C830124C33FB24000800C0BB24015
:10C3D0006600000BB2402400600130413440FC0C88
:10C3E00006441683FE2306441583FB233041344064
:10C3F000220006441683FE2306441583FB233041A6
:08C4000082435800034330435E
:10FFE00000C400C400C400C400C400C400C400C4F1
:10FFF00000C400C400C400C400C400C400C400C0E5
:040000030000C00039
:00000001FF
