:10C0000031405040374000500A433540401F1583AF
:10C01000FE23B24010005800B240805A200132C2C4
:10C02000A2430E0BB24004BE6401B2406600000B96
:10C03000B24024006001B24000800C0B8243080B28
:10C0400082430A0B874A00002753874A0000275380
:10C050003D404000B0122CC21F433D404000B01292
:10C0600040C1B012EEC1B01282C03D404000B012DB
:10C070002CC21F830124F13FB743000082435800C4
:10C080002D3D3B4000702C4BB24000800C0BB24069
:10C0900004BE6401B24024006001B2430E0B2B5376
:10C0A000A24B080B2B53A24B0A0B2B532B532B5396
:10C0B000284B08932424B2400032020BB2406000A7
:10C0C000100BB2406000120BB2406600000BB24091
:10C0D000140060012543B012B8C2B2402600000B24
:10C0E0002543B012CAC22A5318830124F93F8B4852
:10C0F0000000B2406600000B1543B012B8C21C83AA
:10C100000124CD3FA24260012543B012B8C2B24023
:10C11000240060011543B012B8C2A2430E0BB24016
:10C120004000100BB2404000120B1543B012B8C2D1
:10C13000B740333300002753874A0000275330416C
:10C140003B4000702C4BB24000800C0BB24004BE50
:10C150006401B24024006001A2430E0B2B53A24B9A
:10C16000080B2B53A24B0A0B2B53284B2B532B534F
:10C17000294B09933224824D020BB2404000100B30
:10C18000B2404000120BB2406600000B2543B012D3
:10C19000B8C2B240A400000B35400A00B012B8C2C9
:10C1A000B24000B00C0B35400500B012B8C282435B
:10C1B000040B1942040BB24000800C0B09980330A9
:10C1C0008B4300000A3C39909011023439409011A1
:10C1D0002B8308898B4800002B531C830124BE3F0E
:10C1E000B2406600000BB2402400600130413B4089
:10C1F00000702C4B2B532B532B532B53294B2B536E
:10C200002E4B0E930F240910091009100910091064
:10C21000091039C000FF096919C3395000682E4957
:10C220008B4E00001C830124E53F30413B400070F1
:10C230002C4BB24000800C0BB24004BE6401B240F3
:10C2400024006001A2430E0B2B53A24B080B2B536F
:10C25000A24B0A0B2B532B532B53824D020BB24094
:10C260004000100BB2404000120BB2406600000BC1
:10C270002543B012B8C2B240A400000B35400A00FA
:10C28000B012B8C2B24000B00C0B35400500B0127D
:10C29000B8C28243040B9742040B00002753B240FC
:10C2A00000800C0B1C830124CF3FB2406600000BC2
:10C2B000B2402400600130413440FC0C0644168337
:10C2C000FE2306441583FB233041344022000644FC
:10C2D0001683FE2306441583FB2330418243580016
:04C2E00003433043A1
:10FFE000DCC2DCC2DCC2DCC2DCC2DCC2DCC2DCC221
:10FFF000DCC2DCC2DCC2DCC2DCC2DCC2DCC200C0EF
:040000030000C00039
:00000001FF
