:10C0000031405040374000500A4335408813158373
:10C01000FE23B24010005800B240805A200132C2C4
:10C02000A2430E0BB24004BE6401B2406600000B96
:10C03000B24024006001B24000800C0B8243080B28
:10C0400082430A0B874A00002753874A0000275380
:10C05000B01200C2B01262C0B01200C2B7430000FA
:10C06000363D3B4000702C4BB24000800C0BB24080
:10C0700004BE6401B24024006001B2430E0BB24022
:10C080006600000BB240140060012543B012AAC242
:10C090002B53A24B080B2B53A24B0A0B2B53284BB1
:10C0A000B24000800C0BB2430E0B08935224824323
:10C0B0000C0BA2430E0BB2404000020BB2404000FA
:10C0C000100BB2404000120BB2402600000B15438B
:10C0D000B012BCC21A53B2406600000BB2400080DE
:10C0E0000C0BB2430E0BB2404000020BB24060009A
:10C0F000100BB2406000120BB2402600000B35401E
:10C100003075B012BCC23A5030758243020B3540D4
:10C110003075B012BCC23A502C01B2400050020B34
:10C1200035403075B012BCC23A502C01B24000B05C
:10C13000020B35403075B012BCC23A502C01B240EF
:10C140006000020B35403075B012BCC23A502C0171
:10C150002D3CB2404000020BB2406000100BB240D8
:10C160006000120BB2402600000B35408813B0125D
:10C17000BCC28243020B3540F401B012BCC2B240D3
:10C180000050020B3540C800B012BCC2B24000B033
:10C19000020B3540C800B012BCC2B2406000020BB6
:10C1A0003540C800B012BCC23A503D00B2406600F3
:10C1B000000B1543B012AAC21C830124693FA2429E
:10C1C00060012543B012AAC2B240240060011543A9
:10C1D000B012AAC2B24000800C0BA2430E0BB240B8
:10C1E0004000100BB2404000120B1543B012AAC21F
:10C1F000B740333300002753874A000027533041AC
:10C200003B4000702C4BB24000800C0BB24004BE8F
:10C210006401B24024006001A2430E0B2B53A24BD9
:10C22000080B2B53A24B0A0B2B53284BB240008018
:10C230000C0B0893022482430C0BB2404000020B0B
:10C24000B2404000100BB2404000120BB2406600FA
:10C25000000B2543B012AAC2B240A400000B354027
:10C260000A00B012AAC2B24000B00C0B089303241B
:10C27000B24000300C0B35400500B012AAC2824318
:10C28000040B9742040B00002753B24000800C0BB4
:10C290001C830124C33FB24000800C0BB2406600F7
:10C2A000000BB2402400600130413440FC0C0644D5
:10C2B0001683FE2306441583FB23304134402200BD
:10C2C00006441683FE2306441583FB233041824334
:06C2D00058000343304357
:10FFE000CEC2CEC2CEC2CEC2CEC2CEC2CEC2CEC291
:10FFF000CEC2CEC2CEC2CEC2CEC2CEC2CEC200C051
:040000030000C00039
:00000001FF
