:10C000003140504037400060B24010005800B2400C
:10C01000805A200132C2B24064006001A2430E0B7C
:10C020008243080B82430A0B8243020B8243100BAC
:10C03000B2404000120BB240043F640135400A0098
:10C04000B012E6C0B240041F6401B2406600000BAB
:10C0500082430C0B3540E803B012E6C01F433B405F
:10C0600000432C4B2B532D4B2B532E4B094D39C0DA
:10C07000FCFF099303242B53A24BD001094D39C077
:10C08000F3FF099303242B53A24BD201094D39C06E
:10C09000CFFF099303242B53A24BD401094D39C080
:10C0A0003FFF099303242B53A24BD601094D39C0FE
:10C0B000FFFC099303242B53A24BD801054E059393
:10C0C0000224B012F8C00F93052435401400B012BA
:10C0D000E6C01F831C830124C93FB743000082438D
:10C0E0005800034330433440FC0C06441683FE23BF
:10C0F00006441583FB233041344022000644168356
:0AC10000FE2306441583FB233041A3
:10FFE000DEC0DEC0DEC0DEC0DEC0DEC0DEC0DEC021
:10FFF000DEC0DEC0DEC0DEC0DEC0DEC0DEC000C0EF
:040000030000C00039
:00000001FF
