:10C0000031405040374000500A433540401F1583AF
:10C01000FE23B24010005800B240805A200132C2C4
:10C02000A2430E0BB24004BE6401B2406600000B96
:10C03000B24024006001B24000800C0B8243080B28
:10C0400082430A0B874A00002753874A0000275380
:10C050000D43B012AEC23F4032000D43B01274C166
:10C06000B0123AC2B012ACC0084308930924B740DA
:10C07000333300002753874A00002753B012AEC263
:10C080001F830124EA3F1F43B74033330000275387
:10C09000874A000027530D43B012AEC21F8301240C
:10C0A000F33FB743000082435800673D3B400070B8
:10C0B0002C4BB24000800C0BB24004BE6401B24075
:10C0C00024006001B2430E0B2B53A24B080B2B53E1
:10C0D000A24B0A0B2B532B532B53284B0893302482
:10C0E000B240004A020BB2406000100BB240600048
:10C0F000120BB2406600000BB240140060012543F1
:10C10000B01256C3064306930D24B2402600000B1E
:10C1100035400300B01268C33A500300B2406600D5
:10C12000000B0B3C8248000B35400300B01268C383
:10C130003A500300B2406600000B1543B01256C3DC
:10C140001C830124C13FA24260012543B01256C3A3
:10C15000B240240060011543B01256C3A2430E0B37
:10C16000B2404000100BB2404000120B1543B01219
:10C1700056C330413B4000702C4BB24000800C0B4A
:10C18000B24004BE6401B24024006001A2430E0B21
:10C190002B53A24B080B2B53A24B0A0B2B532B53A5
:10C1A0002B53294B09933F24824D020BB240400090
:10C1B000100BB2404000120BB2406600000B25434A
:10C1C000B01256C3B240A400000B35400A00B012B2
:10C1D00056C32E420943B24000B00C0B3540050057
:10C1E000B01256C38243040B1952040BB2400080B4
:10C1F0000C0B35400A00B01268C31E830124EB3FCC
:10C200000910091039C000C02B832B83284B2B53F6
:10C210002B53099803308B430000053C2B8308897E
:10C220008B4800002B531C830124B23FB2406600B0
:10C23000000BB2402400600130413B4000702C4BA9
:10C240002B532B532B53284B2B53294B2B532E4B18
:10C250000E932924088938809011364208930134BE
:10C260000843081038C000801683FB2336400300C3
:10C27000091039C000801683FB233950150016437E
:10C28000069302240958013C0988099301340943A3
:10C29000096919C3395000682B838B4900002B535F
:10C2A0002E498B4E00001C830124CA3F30413B4085
:10C2B00000702C4BB24000800C0BB24004BE6401F5
:10C2C000B24024006001A2430E0B2B53A24B080B7B
:10C2D0002B53A24B0A0B2B532B532B53824D020B88
:10C2E000B2404000100BB2404000120BB24066005A
:10C2F000000B2543B01256C3B240A400000B3540DA
:10C300000A00B01256C32E420943B24000B00C0BD3
:10C3100035400500B01256C38243040B1952040B7A
:10C32000B24000800C0B35400A00B01268C31E8377
:10C330000124EB3F0910091039C000C087490000F3
:10C3400027531C830124C13FB2406600000BB2405A
:10C350002400600130413440FC0C06441683FE2367
:10C3600006441583FB2330413440220006441683E3
:10C37000FE2306441583FB233041824358000343C8
:02C38000304348
:10FFE0007AC37AC37AC37AC37AC37AC37AC37AC329
:10FFF0007AC37AC37AC37AC37AC37AC37AC300C096
:040000030000C00039
:00000001FF
