:10C0000031405040374000500A433540401F1583AF
:10C01000FE23B24010005800B240805A200132C2C4
:10C02000A2430E0BB24004BE6401B2406600000B96
:10C03000B24024006001B24000800C0B8243080B28
:10C0400082430A0B874A00002753874A0000275380
:10C050000D43B0122CC23F402C013D404000B012B5
:10C060006AC1B012A2C0084308930924B740333311
:10C0700000002753874A00002753B0122CC21F83A9
:10C080000124EB3FB740333300002753874A0000B9
:10C0900027530D43B0122CC2B7430000824358000F
:10C0A0001D3D3B4000702C4BB24000800C0BB24059
:10C0B00004BE6401B24024006001B2430E0B2B5356
:10C0C000A24B080B2B53A24B0A0B2B532B532B5376
:10C0D000284B089330248243020BB2406000100BBF
:10C0E000B2406000120BB2406600000BB240140078
:10C0F00060012543B012B8C2B2400EEA000B38907E
:10C10000CCCC0924B2400EFE000B3890DDDD0324B8
:10C11000B2402600000B1543B012CAC21A5338931E
:10C1200004201543B012CAC21A53B2406600000B75
:10C130001543B012B8C21C830124C13FA242600162
:10C140002543B012B8C2B240240060011543B012BA
:10C15000B8C2A2430E0BB2404000100BB2404000E8
:10C16000120B1543B012B8C230413B4000702C4B4B
:10C17000B24000800C0BB24004BE6401B240240007
:10C180006001A2430E0B2B53A24B080B2B53A24B67
:10C190000A0B2B532B532B53294B09933D24824DD0
:10C1A000020BB2404000100BB2404000120BB240F4
:10C1B0006600000B2543B012B8C2B240A400000BC9
:10C1C00035400A00B012B8C2B24000B00C0B354086
:10C1D0000500B012B8C28243040B1942040BB240EE
:10C1E00000800C0B39907B1B03308B430000143C08
:10C1F00039907D1A0430BB40CCCC00000D3C399006
:10C2000084170430BB40DDDD0000063C39909011FE
:10C210000330BB40EEEE00001C830124B43FB2406B
:10C220006600000BB2402400600130413B400070CA
:10C230002C4BB24000800C0BB24004BE6401B240F3
:10C2400024006001A2430E0B2B53A24B080B2B536F
:10C25000A24B0A0B2B532B532B53824D020BB24094
:10C260004000100BB2404000120BB2406600000BC1
:10C270002543B012B8C2B240A400000B35400A00FA
:10C28000B012B8C2B24000B00C0B35400500B0127D
:10C29000B8C28243040B9742040B00002753B240FC
:10C2A00000800C0B1C830124CF3FB2406600000BC2
:10C2B000B2402400600130413440FC0C0644168337
:10C2C000FE2306441583FB233041344022000644FC
:10C2D0001683FE2306441583FB2330418243580016
:04C2E00003433043A1
:10FFE000DCC2DCC2DCC2DCC2DCC2DCC2DCC2DCC221
:10FFF000DCC2DCC2DCC2DCC2DCC2DCC2DCC200C0EF
:040000030000C00039
:00000001FF
