:10C0000031405040374000500A4335408813158373
:10C01000FE23B24010005800B240805A200132C2C4
:10C02000A2430E0BB24004BE6401B2406600000B96
:10C03000B24024006001B24000800C0B8243080B28
:10C0400082430A0B874A00002753874A0000275380
:10C05000B0126CC2B01262C0B0126CC2B743000022
:10C060006C3D3B4000702C4BB24000800C0BB2404A
:10C0700004BE6401B24024006001B2430E0BB24022
:10C080006600000BB240140060012543B01216C3D5
:10C090002B53A24B080B2B53A24B0A0B2B53284BB1
:10C0A000B24000800C0BB2430E0B089388248243ED
:10C0B0000C0BA2430E0BB2404000020BB2404000FA
:10C0C000100BB2404000120BB2402600000B15438B
:10C0D000B01228C31A53B2406600000BB240008071
:10C0E0000C0BB2430E0BB2404000020BB24060009A
:10C0F000100BB2406000120BB2402600000B35401E
:10C1000050C3B01228C33A50F401354050C3B012A6
:10C1100028C33A50F401354050C3B01228C33A50F6
:10C12000F401354050C3B01228C33A50F4013540F1
:10C1300050C3B01228C33A50F401354050C3B01276
:10C1400028C33A50F401354050C3B01228C33A50C6
:10C15000F4018243020B35403075B01228C33A50C7
:10C160002C0135403075B01228C33A502C013540AF
:10C170003075B01228C33A502C0135403075B012DA
:10C1800028C33A502C01B2400050020B35403075A4
:10C19000B01228C33A502C01B24000B0020B354017
:10C1A0003075B01228C33A502C01B2406000020B27
:10C1B00035403075B01228C33A502C012D3CB240A6
:10C1C0004000020BB2406000100BB2406000120B46
:10C1D000B2402600000B3540401FB01228C38243F6
:10C1E000020B3540F401B01228C3B2400050020BDC
:10C1F0003540C800B01228C3B24000B0020B354031
:10C20000C800B01228C3B2406000020B3540C8001D
:10C21000B01228C33A503D00B2406600000B1543EF
:10C22000B01216C31C830124333FA2426001254390
:10C23000B01216C3B240240060011543B01216C3F9
:10C24000B24000800C0BA2430E0BB2404000100B1A
:10C25000B2404000120B1543B01216C3B74033333F
:10C2600000002753874A0000275330413B400070AD
:10C270002C4BB24000800C0BB24004BE6401B240B3
:10C2800024006001A2430E0B2B53A24B080B2B532F
:10C29000A24B0A0B2B53284BB24000800C0B089387
:10C2A000022482430C0BB2404000020BB24040001B
:10C2B000100BB2404000120BB2406600000B254349
:10C2C000B01216C3B240A400000B35400A00B012F1
:10C2D00016C3B24000B00C0B08930324B2400030E8
:10C2E0000C0B35400500B01216C38243040B974275
:10C2F000040B00002753B24000800C0B1C83012468
:10C30000C33FB24000800C0BB2406600000BB2404D
:10C310002400600130413440FC0C06441683FE23A7
:10C3200006441583FB233041344022000644168323
:10C33000FE2306441583FB23304182435800034308
:02C34000304388
:10FFE0003AC33AC33AC33AC33AC33AC33AC33AC329
:10FFF0003AC33AC33AC33AC33AC33AC33AC300C056
:040000030000C00039
:00000001FF
