:10C000003140504037400060B24010005800B2400C
:10C01000805A200132C2B24064006001A2430E0B7C
:10C020008243080B82430A0B8243020B8243100BAC
:10C03000B2404000120BB240043F64011543B012FD
:10C040005AC0B240041F6401B240A400000B8243F6
:10C050000C0B82435800034330433440FC0C06442D
:10C060001683FE2306441583FB233041344022000F
:0EC0700006441683FE2306441583FB2330414D
:10FFE00052C052C052C052C052C052C052C052C081
:10FFF00052C052C052C052C052C052C052C000C0C3
:040000030000C00039
:00000001FF
